{
  "_format": "hh-sol-artifact-1",
  "contractName": "Campaign",
  "sourceName": "contracts/Kickstart.sol",
  "abi": [
    {
      "inputs": [
        {
          "internalType": "address",
          "name": "_manager",
          "type": "address"
        },
        {
          "internalType": "uint256",
          "name": "_minimumContribution",
          "type": "uint256"
        }
      ],
      "stateMutability": "nonpayable",
      "type": "constructor"
    },
    {
      "inputs": [
        {
          "internalType": "uint256",
          "name": "whichRequest",
          "type": "uint256"
        }
      ],
      "name": "approveRequest",
      "outputs": [],
      "stateMutability": "nonpayable",
      "type": "function"
    },
    {
      "inputs": [],
      "name": "approverCount",
      "outputs": [
        {
          "internalType": "uint256",
          "name": "",
          "type": "uint256"
        }
      ],
      "stateMutability": "view",
      "type": "function"
    },
    {
      "inputs": [
        {
          "internalType": "address",
          "name": "",
          "type": "address"
        }
      ],
      "name": "approvers",
      "outputs": [
        {
          "internalType": "bool",
          "name": "",
          "type": "bool"
        }
      ],
      "stateMutability": "view",
      "type": "function"
    },
    {
      "inputs": [],
      "name": "contribute",
      "outputs": [],
      "stateMutability": "payable",
      "type": "function"
    },
    {
      "inputs": [
        {
          "internalType": "string",
          "name": "name",
          "type": "string"
        },
        {
          "internalType": "uint256",
          "name": "value",
          "type": "uint256"
        },
        {
          "internalType": "address payable",
          "name": "recipient",
          "type": "address"
        }
      ],
      "name": "createRequest",
      "outputs": [],
      "stateMutability": "nonpayable",
      "type": "function"
    },
    {
      "inputs": [
        {
          "internalType": "uint256",
          "name": "whichRequest",
          "type": "uint256"
        }
      ],
      "name": "disaproveRequest",
      "outputs": [],
      "stateMutability": "nonpayable",
      "type": "function"
    },
    {
      "inputs": [
        {
          "internalType": "uint256",
          "name": "whichRequest",
          "type": "uint256"
        }
      ],
      "name": "finalizeRequest",
      "outputs": [],
      "stateMutability": "nonpayable",
      "type": "function"
    },
    {
      "inputs": [],
      "name": "manager",
      "outputs": [
        {
          "internalType": "address",
          "name": "",
          "type": "address"
        }
      ],
      "stateMutability": "view",
      "type": "function"
    },
    {
      "inputs": [],
      "name": "minimumContribution",
      "outputs": [
        {
          "internalType": "uint256",
          "name": "",
          "type": "uint256"
        }
      ],
      "stateMutability": "view",
      "type": "function"
    },
    {
      "inputs": [
        {
          "internalType": "uint256",
          "name": "",
          "type": "uint256"
        }
      ],
      "name": "requests",
      "outputs": [
        {
          "internalType": "string",
          "name": "name",
          "type": "string"
        },
        {
          "internalType": "uint256",
          "name": "value",
          "type": "uint256"
        },
        {
          "internalType": "address payable",
          "name": "recipient",
          "type": "address"
        },
        {
          "internalType": "bool",
          "name": "approved",
          "type": "bool"
        },
        {
          "internalType": "int256",
          "name": "approvals",
          "type": "int256"
        },
        {
          "internalType": "uint256",
          "name": "total",
          "type": "uint256"
        }
      ],
      "stateMutability": "view",
      "type": "function"
    },
    {
      "inputs": [
        {
          "internalType": "uint256",
          "name": "",
          "type": "uint256"
        },
        {
          "internalType": "address",
          "name": "",
          "type": "address"
        }
      ],
      "name": "whoVoted",
      "outputs": [
        {
          "internalType": "bool",
          "name": "",
          "type": "bool"
        }
      ],
      "stateMutability": "view",
      "type": "function"
    }
  ],
  "bytecode": "0x60806040523480156200001157600080fd5b50604051620012d8380380620012d883398181016040528101906200003791906200012b565b816000806101000a81548173ffffffffffffffffffffffffffffffffffffffff021916908373ffffffffffffffffffffffffffffffffffffffff16021790555080600181905550505062000172565b600080fd5b600073ffffffffffffffffffffffffffffffffffffffff82169050919050565b6000620000b8826200008b565b9050919050565b620000ca81620000ab565b8114620000d657600080fd5b50565b600081519050620000ea81620000bf565b92915050565b6000819050919050565b6200010581620000f0565b81146200011157600080fd5b50565b6000815190506200012581620000fa565b92915050565b6000806040838503121562000145576200014462000086565b5b60006200015585828601620000d9565b9250506020620001688582860162000114565b9150509250929050565b61115680620001826000396000f3fe60806040526004361061009c5760003560e01c80638a9cfd55116100645780638a9cfd551461019f578063937e09b1146101c85780639f3112f4146101f3578063a9802f471461021c578063d7bb99ba14610259578063d7d1bbdb146102635761009c565b806303441006146100a15780630a144391146100ca578063128e9be614610107578063481c6a751461013257806381d12c581461015d575b600080fd5b3480156100ad57600080fd5b506100c860048036038101906100c39190610a99565b61028c565b005b3480156100d657600080fd5b506100f160048036038101906100ec9190610b24565b610395565b6040516100fe9190610b6c565b60405180910390f35b34801561011357600080fd5b5061011c6103b5565b6040516101299190610b96565b60405180910390f35b34801561013e57600080fd5b506101476103bb565b6040516101549190610bc0565b60405180910390f35b34801561016957600080fd5b50610184600480360381019061017f9190610a99565b6103df565b60405161019696959493929190610cae565b60405180910390f35b3480156101ab57600080fd5b506101c660048036038101906101c19190610e77565b6104e0565b005b3480156101d457600080fd5b506101dd610605565b6040516101ea9190610b96565b60405180910390f35b3480156101ff57600080fd5b5061021a60048036038101906102159190610a99565b61060b565b005b34801561022857600080fd5b50610243600480360381019061023e9190610ee6565b6106f7565b6040516102509190610b6c565b60405180910390f35b610261610726565b005b34801561026f57600080fd5b5061028a60048036038101906102859190610a99565b6107a3565b005b6102953361088f565b6000600582815481106102ab576102aa610f26565b5b90600052602060002090600502019050600280546102c99190610fb3565b8160040154116102d857600080fd5b60008160030154136102e957600080fd5b8060020160149054906101000a900460ff161561030557600080fd5b8060020160009054906101000a900473ffffffffffffffffffffffffffffffffffffffff1673ffffffffffffffffffffffffffffffffffffffff166108fc82600101549081150290604051600060405180830381858888f19350505050158015610373573d6000803e3d6000fd5b5060018160020160146101000a81548160ff0219169083151502179055505050565b60036020528060005260406000206000915054906101000a900460ff1681565b60025481565b60008054906101000a900473ffffffffffffffffffffffffffffffffffffffff1681565b600581815481106103ef57600080fd5b906000526020600020906005020160009150905080600001805461041290611013565b80601f016020809104026020016040519081016040528092919081815260200182805461043e90611013565b801561048b5780601f106104605761010080835404028352916020019161048b565b820191906000526020600020905b81548152906001019060200180831161046e57829003601f168201915b5050505050908060010154908060020160009054906101000a900473ffffffffffffffffffffffffffffffffffffffff16908060020160149054906101000a900460ff16908060030154908060040154905086565b6104e93361088f565b60056040518060c001604052808581526020018481526020018373ffffffffffffffffffffffffffffffffffffffff168152602001600015158152602001600081526020016000815250908060018154018082558091505060019003906000526020600020906005020160009091909190915060008201518160000190805190602001906105789291906109ac565b506020820151816001015560408201518160020160006101000a81548173ffffffffffffffffffffffffffffffffffffffff021916908373ffffffffffffffffffffffffffffffffffffffff16021790555060608201518160020160146101000a81548160ff0219169083151502179055506080820151816003015560a082015181600401555050505050565b60015481565b61061581336108ea565b60016004600083815260200190815260200160002060003373ffffffffffffffffffffffffffffffffffffffff1673ffffffffffffffffffffffffffffffffffffffff16815260200190815260200160002060006101000a81548160ff0219169083151502179055506005818154811061069257610691610f26565b5b906000526020600020906005020160030160008154809291906106b490611045565b9190505550600581815481106106cd576106cc610f26565b5b906000526020600020906005020160040160008154809291906106ef9061108e565b919050555050565b60046020528160005260406000206020528060005260406000206000915091509054906101000a900460ff1681565b6001543411156107a1576001600360003373ffffffffffffffffffffffffffffffffffffffff1673ffffffffffffffffffffffffffffffffffffffff16815260200190815260200160002060006101000a81548160ff0219169083151502179055506002600081548092919061079b9061108e565b91905055505b565b6107ad81336108ea565b60016004600083815260200190815260200160002060003373ffffffffffffffffffffffffffffffffffffffff1673ffffffffffffffffffffffffffffffffffffffff16815260200190815260200160002060006101000a81548160ff0219169083151502179055506005818154811061082a57610829610f26565b5b9060005260206000209060050201600301600081548092919061084c906110d7565b91905055506005818154811061086557610864610f26565b5b906000526020600020906005020160040160008154809291906108879061108e565b919050555050565b8073ffffffffffffffffffffffffffffffffffffffff1660008054906101000a900473ffffffffffffffffffffffffffffffffffffffff1673ffffffffffffffffffffffffffffffffffffffff16146108e757600080fd5b50565b6004600083815260200190815260200160002060008273ffffffffffffffffffffffffffffffffffffffff1673ffffffffffffffffffffffffffffffffffffffff16815260200190815260200160002060009054906101000a900460ff161561095257600080fd5b600360008273ffffffffffffffffffffffffffffffffffffffff1673ffffffffffffffffffffffffffffffffffffffff16815260200190815260200160002060009054906101000a900460ff166109a857600080fd5b5050565b8280546109b890611013565b90600052602060002090601f0160209004810192826109da5760008555610a21565b82601f106109f357805160ff1916838001178555610a21565b82800160010185558215610a21579182015b82811115610a20578251825591602001919060010190610a05565b5b509050610a2e9190610a32565b5090565b5b80821115610a4b576000816000905550600101610a33565b5090565b6000604051905090565b600080fd5b600080fd5b6000819050919050565b610a7681610a63565b8114610a8157600080fd5b50565b600081359050610a9381610a6d565b92915050565b600060208284031215610aaf57610aae610a59565b5b6000610abd84828501610a84565b91505092915050565b600073ffffffffffffffffffffffffffffffffffffffff82169050919050565b6000610af182610ac6565b9050919050565b610b0181610ae6565b8114610b0c57600080fd5b50565b600081359050610b1e81610af8565b92915050565b600060208284031215610b3a57610b39610a59565b5b6000610b4884828501610b0f565b91505092915050565b60008115159050919050565b610b6681610b51565b82525050565b6000602082019050610b816000830184610b5d565b92915050565b610b9081610a63565b82525050565b6000602082019050610bab6000830184610b87565b92915050565b610bba81610ae6565b82525050565b6000602082019050610bd56000830184610bb1565b92915050565b600081519050919050565b600082825260208201905092915050565b60005b83811015610c15578082015181840152602081019050610bfa565b83811115610c24576000848401525b50505050565b6000601f19601f8301169050919050565b6000610c4682610bdb565b610c508185610be6565b9350610c60818560208601610bf7565b610c6981610c2a565b840191505092915050565b6000610c7f82610ac6565b9050919050565b610c8f81610c74565b82525050565b6000819050919050565b610ca881610c95565b82525050565b600060c0820190508181036000830152610cc88189610c3b565b9050610cd76020830188610b87565b610ce46040830187610c86565b610cf16060830186610b5d565b610cfe6080830185610c9f565b610d0b60a0830184610b87565b979650505050505050565b600080fd5b600080fd5b7f4e487b7100000000000000000000000000000000000000000000000000000000600052604160045260246000fd5b610d5882610c2a565b810181811067ffffffffffffffff82111715610d7757610d76610d20565b5b80604052505050565b6000610d8a610a4f565b9050610d968282610d4f565b919050565b600067ffffffffffffffff821115610db657610db5610d20565b5b610dbf82610c2a565b9050602081019050919050565b82818337600083830152505050565b6000610dee610de984610d9b565b610d80565b905082815260208101848484011115610e0a57610e09610d1b565b5b610e15848285610dcc565b509392505050565b600082601f830112610e3257610e31610d16565b5b8135610e42848260208601610ddb565b91505092915050565b610e5481610c74565b8114610e5f57600080fd5b50565b600081359050610e7181610e4b565b92915050565b600080600060608486031215610e9057610e8f610a59565b5b600084013567ffffffffffffffff811115610eae57610ead610a5e565b5b610eba86828701610e1d565b9350506020610ecb86828701610a84565b9250506040610edc86828701610e62565b9150509250925092565b60008060408385031215610efd57610efc610a59565b5b6000610f0b85828601610a84565b9250506020610f1c85828601610b0f565b9150509250929050565b7f4e487b7100000000000000000000000000000000000000000000000000000000600052603260045260246000fd5b7f4e487b7100000000000000000000000000000000000000000000000000000000600052601260045260246000fd5b7f4e487b7100000000000000000000000000000000000000000000000000000000600052601160045260246000fd5b6000610fbe82610a63565b9150610fc983610a63565b925082610fd957610fd8610f55565b5b828204905092915050565b7f4e487b7100000000000000000000000000000000000000000000000000000000600052602260045260246000fd5b6000600282049050600182168061102b57607f821691505b6020821081141561103f5761103e610fe4565b5b50919050565b600061105082610c95565b91507f800000000000000000000000000000000000000000000000000000000000000082141561108357611082610f84565b5b600182039050919050565b600061109982610a63565b91507fffffffffffffffffffffffffffffffffffffffffffffffffffffffffffffffff8214156110cc576110cb610f84565b5b600182019050919050565b60006110e282610c95565b91507f7fffffffffffffffffffffffffffffffffffffffffffffffffffffffffffffff82141561111557611114610f84565b5b60018201905091905056fea264697066735822122074b89663050cbc599e16d4afbf66a442168c91d51ecae89690b7c96c6c1c3a3b64736f6c63430008090033",
  "linkReferences": {},
  "deployedLinkReferences": {}
}